{"abi":[{"type":"constructor","inputs":[{"name":"_usdc","type":"address","internalType":"contract IERC20"},{"name":"_treasury","type":"address","internalType":"address"}],"stateMutability":"nonpayable"},{"type":"function","name":"allowListLength","inputs":[{"name":"entryId","type":"bytes32","internalType":"bytes32"}],"outputs":[{"name":"","type":"uint256","internalType":"uint256"}],"stateMutability":"view"},{"type":"function","name":"entries","inputs":[{"name":"","type":"bytes32","internalType":"bytes32"}],"outputs":[{"name":"owner","type":"address","internalType":"address"},{"name":"fileId","type":"bytes32","internalType":"bytes32"},{"name":"expiresAt","type":"uint64","internalType":"uint64"},{"name":"active","type":"bool","internalType":"bool"}],"stateMutability":"view"},{"type":"function","name":"getEntry","inputs":[{"name":"entryId","type":"bytes32","internalType":"bytes32"}],"outputs":[{"name":"","type":"tuple","internalType":"struct CachePayments.CacheEntry","components":[{"name":"owner","type":"address","internalType":"address"},{"name":"fileId","type":"bytes32","internalType":"bytes32"},{"name":"expiresAt","type":"uint64","internalType":"uint64"},{"name":"active","type":"bool","internalType":"bool"},{"name":"allowList","type":"address[]","internalType":"address[]"}]}],"stateMutability":"view"},{"type":"function","name":"grantAccess","inputs":[{"name":"entryId","type":"bytes32","internalType":"bytes32"},{"name":"grantee","type":"address","internalType":"address"}],"outputs":[],"stateMutability":"nonpayable"},{"type":"function","name":"isAllowed","inputs":[{"name":"entryId","type":"bytes32","internalType":"bytes32"},{"name":"user","type":"address","internalType":"address"}],"outputs":[{"name":"","type":"bool","internalType":"bool"}],"stateMutability":"view"},{"type":"function","name":"payForCache","inputs":[{"name":"entryId","type":"bytes32","internalType":"bytes32"},{"name":"tier","type":"uint8","internalType":"enum CachePayments.Tier"},{"name":"durationSeconds","type":"uint64","internalType":"uint64"}],"outputs":[],"stateMutability":"nonpayable"},{"type":"function","name":"priceFolder","inputs":[],"outputs":[{"name":"","type":"uint256","internalType":"uint256"}],"stateMutability":"view"},{"type":"function","name":"pricePermanent","inputs":[],"outputs":[{"name":"","type":"uint256","internalType":"uint256"}],"stateMutability":"view"},{"type":"function","name":"priceSingle","inputs":[],"outputs":[{"name":"","type":"uint256","internalType":"uint256"}],"stateMutability":"view"},{"type":"function","name":"revokeAccess","inputs":[{"name":"entryId","type":"bytes32","internalType":"bytes32"},{"name":"grantee","type":"address","internalType":"address"}],"outputs":[],"stateMutability":"nonpayable"},{"type":"function","name":"setPrices","inputs":[{"name":"single","type":"uint256","internalType":"uint256"},{"name":"folder","type":"uint256","internalType":"uint256"},{"name":"permanent","type":"uint256","internalType":"uint256"}],"outputs":[],"stateMutability":"nonpayable"},{"type":"function","name":"setTreasury","inputs":[{"name":"newTreasury","type":"address","internalType":"address"}],"outputs":[],"stateMutability":"nonpayable"},{"type":"function","name":"treasury","inputs":[],"outputs":[{"name":"","type":"address","internalType":"address"}],"stateMutability":"view"},{"type":"function","name":"usdc","inputs":[],"outputs":[{"name":"","type":"address","internalType":"contract IERC20"}],"stateMutability":"view"},{"type":"event","name":"AccessGranted","inputs":[{"name":"entryId","type":"bytes32","indexed":true,"internalType":"bytes32"},{"name":"grantee","type":"address","indexed":true,"internalType":"address"}],"anonymous":false},{"type":"event","name":"AccessRevoked","inputs":[{"name":"entryId","type":"bytes32","indexed":true,"internalType":"bytes32"},{"name":"grantee","type":"address","indexed":true,"internalType":"address"}],"anonymous":false},{"type":"event","name":"CachePaid","inputs":[{"name":"entryId","type":"bytes32","indexed":true,"internalType":"bytes32"},{"name":"payer","type":"address","indexed":true,"internalType":"address"},{"name":"tier","type":"uint8","indexed":false,"internalType":"enum CachePayments.Tier"},{"name":"expiresAt","type":"uint64","indexed":false,"internalType":"uint64"}],"anonymous":false},{"type":"event","name":"PricesUpdated","inputs":[{"name":"single","type":"uint256","indexed":false,"internalType":"uint256"},{"name":"folder","type":"uint256","indexed":false,"internalType":"uint256"},{"name":"permanent","type":"uint256","indexed":false,"internalType":"uint256"}],"anonymous":false},{"type":"event","name":"TreasuryUpdated","inputs":[{"name":"previous","type":"address","indexed":true,"internalType":"address"},{"name":"next","type":"address","indexed":true,"internalType":"address"}],"anonymous":false}],"bytecode":{"object":"0x60a03461014157601f610c1b38819003918201601f19168301916001600160401b038311848410176101455780849260409485528339810103126101415780516001600160a01b039182821690818303610141576020015192831680930361014157156100fc5781156100b757608052600380546001600160a01b031916919091179055620f42405f55624c4b406001556302faf080600255604051610ac1908161015a82396080518181816101c001526106cb0152f35b60405162461bcd60e51b815260206004820152601c60248201527f43616368655061796d656e74733a207a65726f207472656173757279000000006044820152606490fd5b60405162461bcd60e51b815260206004820152601860248201527f43616368655061796d656e74733a207a65726f207573646300000000000000006044820152606490fd5b5f80fd5b634e487b7160e01b5f52604160045260245ffdfe608060409080825260049182361015610016575f80fd5b5f3560e01c918263267b69221461072457508163322a95ee146106fa5781633e413bee146106b857816340554c3a146105b2578163600941b61461059557816361d027b31461056e57816382027b6d1461053e5781638d53b208146105185781639a5e4eb4146103d9578163a88fe42d14610368578163b2725b181461034c578163c03c601d14610147578163c7128fdf1461012a575063f0f44260146100bb575f80fd5b3461012657602036600319011261012657356001600160a01b038181169182900361012657816003549182166100f2813314610a03565b7f4ab5be82436d353e61ca18726e984e561f5c1cc7c6d38b29d2553c790434705a5f80a36001600160a01b03191617600355005b5f80fd5b34610126575f366003190112610126576020906002549051908152f35b905034610126576060366003190112610126578135602435916003831015610126576044359367ffffffffffffffff94858116809103610126575f9061018c86610a4f565b60018060a01b038060035416918651926323b872dd60e01b84523387850152602484015260448301528160648160209687947f0000000000000000000000000000000000000000000000000000000000000000165af1908115610342575f9161030c575b50156102bf576002860361027657507f2ccc5eb49dd0443f3f4f72853bd67c67427915d0846bc76a748afd208aee13759394955f925b865f5282526002845f20336bffffffffffffffffffffffff60a01b82541617815587600182015501921691600160401b8368ffffffffffffffffff198354161717905582519586528501523393a3005b86421601958087116102ac577f2ccc5eb49dd0443f3f4f72853bd67c67427915d0846bc76a748afd208aee137594959692610226565b601183634e487b7160e01b5f525260245ffd5b50608492519162461bcd60e51b8352820152602360248201527f43616368655061796d656e74733a2055534443207472616e73666572206661696044820152621b195960ea1b6064820152fd5b90508281813d831161033b575b61032381836109e1565b8101031261012657518015158103610126575f6101f0565b503d610319565b85513d5f823e3d90fd5b34610126575f366003190112610126576020905f549051908152f35b8234610126576060366003190112610126577fa6b830b74e52d7d1140e76252f225dc7bed28782519845600bbd3182341dc11591606091359060243590604435916103be60018060a01b03600354163314610a03565b835f55806001558260025581519384526020840152820152a1005b823461012657602090816003193601126101265760606080849394516103fe816109b1565b5f81525f868201525f858201525f83820152015280355f528252805f20908051610427816109b1565b60018060a01b039081845416815260019260018501549486830195865260028101549067ffffffffffffffff90600384860191838516835260ff6060880195871c16151585520193805194858b82549182815201915f528b5f20905f5b818110610503575050508561049a9103866109e1565b608086019485528051988a8a528760c08b019751168b8b01525190890152511660608701525115156080860152519460a08086015285518092528060e086019601925f905b8382106104ec5786880387f35b8451811688529682019693820193908501906104df565b82548b168452928d0192918b01918b01610484565b905034610126573660031901126101265761053c9061053561077e565b90356108bc565b005b90503461012657806003193601126101265761056560209261055e61077e565b9035610809565b90519015158152f35b34610126575f3660031901126101265760035490516001600160a01b039091168152602090f35b34610126575f366003190112610126576020906001549051908152f35b82346101265781600319360112610126578035906105ce61077e565b90825f5280602052835f2060018060a01b036105ee818354163314610794565b83169485156106765750600301805491600160401b83101561066357508161061f91600161063d95940181556107e0565b90919060018060a01b038084549260031b9316831b921b1916179055565b7ff20afd7b032307b01752ee91e3f6a4b83a5b4ab631f9ab279322fd45634382c05f80a3005b604190634e487b7160e01b5f525260245ffd5b5162461bcd60e51b8152602081840152601b60248201527f43616368655061796d656e74733a207a65726f206772616e74656500000000006044820152606490fd5b34610126575f36600319011261012657517f00000000000000000000000000000000000000000000000000000000000000006001600160a01b03168152602090f35b9050346101265760203660031901126101265781602092355f5282526003815f2001549051908152f35b8334610126576020366003190112610126576080928160ff92355f52602052805f209060018060a01b038254169160026001820154910154928552602085015267ffffffffffffffff8216818501521c1615156060820152f35b602435906001600160a01b038216820361012657565b1561079b57565b60405162461bcd60e51b815260206004820152601860248201527f43616368655061796d656e74733a206e6f74206f776e657200000000000000006044820152606490fd5b80548210156107f5575f5260205f2001905f90565b634e487b7160e01b5f52603260045260245ffd5b5f52600460205260405f2090600282015460ff8160401c16156108b55767ffffffffffffffff1680151590816108ab575b506108a55781546001600160a01b0391821691908116821461089d576003809301928354935f5b858110610872575050505050505f90565b848461087e83856107e0565b905490861b1c161461089257600101610861565b505050505050600190565b505050600190565b50505f90565b905042115f61083a565b5050505f90565b90815f52600491600460205260405f2060018060a01b036108e1818354163314610794565b60038092019081545f5b8181106108fc575050505050505050565b8261090782866107e0565b905490871b1c1683881680911461092157506001016108eb565b97919293949596505f19928381019081116102ac579061061f8561094861095694896107e0565b9054908a1b1c1691876107e0565b835490811561099e5750019261096c84846107e0565b81939154921b1b19169055557fe7906b77ea165c70ad8268ce5b59b778a198edf9c1ae4118378eefdc76fce5f45f80a3565b603190634e487b7160e01b5f525260245ffd5b60a0810190811067ffffffffffffffff8211176109cd57604052565b634e487b7160e01b5f52604160045260245ffd5b90601f8019910116810190811067ffffffffffffffff8211176109cd57604052565b15610a0a57565b60405162461bcd60e51b815260206004820152601b60248201527f43616368655061796d656e74733a206e6f7420747265617375727900000000006044820152606490fd5b6003811015610a77578015610a7157600114610a6b5760025490565b60015490565b505f5490565b634e487b7160e01b5f52602160045260245ffdfea26469706673582212208bbc1956f6020b0e0ea4b4ae6b45a0a4dc88eb2036261f23680d1647b138794764736f6c63430008180033","linkReferences":{}},"methodIdentifiers":{"allowListLength(bytes32)":"322a95ee","entries(bytes32)":"267b6922","getEntry(bytes32)":"9a5e4eb4","grantAccess(bytes32,address)":"40554c3a","isAllowed(bytes32,address)":"82027b6d","payForCache(bytes32,uint8,uint64)":"c03c601d","priceFolder()":"600941b6","pricePermanent()":"c7128fdf","priceSingle()":"b2725b18","revokeAccess(bytes32,address)":"8d53b208","setPrices(uint256,uint256,uint256)":"a88fe42d","setTreasury(address)":"f0f44260","treasury()":"61d027b3","usdc()":"3e413bee"},"id":21}