{"abi":[{"type":"constructor","inputs":[{"name":"_treasury","type":"address","internalType":"address"}],"stateMutability":"nonpayable"},{"type":"function","name":"chainDonationTotal","inputs":[{"name":"chainIdHash","type":"bytes32","internalType":"bytes32"}],"outputs":[{"name":"","type":"uint256","internalType":"uint256"}],"stateMutability":"view"},{"type":"function","name":"chainDonations","inputs":[{"name":"","type":"bytes32","internalType":"bytes32"}],"outputs":[{"name":"","type":"uint256","internalType":"uint256"}],"stateMutability":"view"},{"type":"function","name":"cidDonationTotal","inputs":[{"name":"cidHash","type":"bytes32","internalType":"bytes32"}],"outputs":[{"name":"","type":"uint256","internalType":"uint256"}],"stateMutability":"view"},{"type":"function","name":"cidDonations","inputs":[{"name":"","type":"bytes32","internalType":"bytes32"}],"outputs":[{"name":"","type":"uint256","internalType":"uint256"}],"stateMutability":"view"},{"type":"function","name":"donate","inputs":[{"name":"recipientType","type":"uint8","internalType":"enum DonationEscrow.Recipient"},{"name":"target","type":"bytes32","internalType":"bytes32"},{"name":"memo","type":"string","internalType":"string"}],"outputs":[],"stateMutability":"payable"},{"type":"function","name":"setTreasury","inputs":[{"name":"newTreasury","type":"address","internalType":"address"}],"outputs":[],"stateMutability":"nonpayable"},{"type":"function","name":"treasury","inputs":[],"outputs":[{"name":"","type":"address","internalType":"address"}],"stateMutability":"view"},{"type":"event","name":"Donated","inputs":[{"name":"donor","type":"address","indexed":true,"internalType":"address"},{"name":"recipient","type":"address","indexed":true,"internalType":"address"},{"name":"amount","type":"uint256","indexed":false,"internalType":"uint256"},{"name":"recipientType","type":"uint8","indexed":true,"internalType":"enum DonationEscrow.Recipient"},{"name":"target","type":"bytes32","indexed":false,"internalType":"bytes32"},{"name":"memo","type":"string","indexed":false,"internalType":"string"},{"name":"timestamp","type":"uint256","indexed":false,"internalType":"uint256"}],"anonymous":false},{"type":"event","name":"TreasuryUpdated","inputs":[{"name":"previous","type":"address","indexed":true,"internalType":"address"},{"name":"next","type":"address","indexed":true,"internalType":"address"}],"anonymous":false}],"bytecode":{"object":"0x6080346100be57601f6104fa38819003918201601f19168301916001600160401b038311848410176100c2578084926020946040528339810103126100be57516001600160a01b038116908190036100be578015610079575f80546001600160a01b03191691909117905560405161042390816100d78239f35b60405162461bcd60e51b815260206004820152601d60248201527f446f6e6174696f6e457363726f773a207a65726f2074726561737572790000006044820152606490fd5b5f80fd5b634e487b7160e01b5f52604160045260245ffdfe608060409080825260049081361015610016575f80fd5b5f3560e01c90816328e315a614610198575080632dab99571461012157806361d027b314610171578063646d5ac414610149578063974f903614610149578063e733dd4a146101215763f0f442601461006d575f80fd5b3461011d57602036600319011261011d576001600160a01b0381358181169391929084900361011d575f54928316918233036100da57505082907f4ab5be82436d353e61ca18726e984e561f5c1cc7c6d38b29d2553c790434705a5f80a36001600160a01b031916175f55005b906020606492519162461bcd60e51b8352820152601c60248201527f446f6e6174696f6e457363726f773a206e6f74207472656173757279000000006044820152fd5b5f80fd5b50903461011d57602036600319011261011d57602091355f5260018252805f20549051908152f35b50903461011d57602036600319011261011d57602091355f5260028252805f20549051908152f35b823461011d575f36600319011261011d575f5490516001600160a01b039091168152602090f35b9050606036600319011261011d57813592600384101561011d5760248035916044359067ffffffffffffffff9586831161011d573660238401121561011d57828101359587871161011d573685888601011161011d57341561038d575060018060a01b03965f808080348c8254165af1903d15610387573d81811161037557845191601f8201601f19908116603f011683019081118382101761036357855281525f60203d92013e5b15610311575f96600189036102e857855f526001602052825f206102663482546103cc565b90555b5f5416966102d657509184916080847f315f3811c00588fde58ce5664666c213287c3d7014d01f590e78ea2b8e4b8f1a9695519534875260208701528501528260808501520160a08301375f60a0848301015242606082015260a0813394601f80199101168101030190a4005b60218491634e487b7160e01b5f52525ffd5b5f9750600119890161026957855f526002602052825f2061030a3482546103cc565b9055610269565b6028846020608494519362461bcd60e51b85528401528201527f446f6e6174696f6e457363726f773a207472656173757279207472616e7366656044820152671c8819985a5b195960c21b6064820152fd5b87604186634e487b7160e01b5f52525ffd5b86604185634e487b7160e01b5f52525ffd5b50610241565b601b85602060649462461bcd60e51b85528401528201527f446f6e6174696f6e457363726f773a207a65726f20616d6f756e7400000000006044820152fd5b919082018092116103d957565b634e487b7160e01b5f52601160045260245ffdfea2646970667358221220a49bbc2a85de6dda3fcd08753710821a0ebfcf7cf0921d91665a39d7c78eca5264736f6c63430008180033","linkReferences":{}},"methodIdentifiers":{"chainDonationTotal(bytes32)":"646d5ac4","chainDonations(bytes32)":"974f9036","cidDonationTotal(bytes32)":"e733dd4a","cidDonations(bytes32)":"2dab9957","donate(uint8,bytes32,string)":"28e315a6","setTreasury(address)":"f0f44260","treasury()":"61d027b3"},"id":20}