{"abi":[{"type":"constructor","inputs":[],"stateMutability":"nonpayable"},{"type":"function","name":"anchorCID","inputs":[{"name":"cidHash","type":"bytes32","internalType":"bytes32"},{"name":"contentHash","type":"bytes32","internalType":"bytes32"},{"name":"uri","type":"string","internalType":"string"}],"outputs":[{"name":"txHash","type":"bytes32","internalType":"bytes32"}],"stateMutability":"nonpayable"},{"type":"function","name":"cidToTx","inputs":[{"name":"","type":"bytes32","internalType":"bytes32"}],"outputs":[{"name":"","type":"bytes32","internalType":"bytes32"}],"stateMutability":"view"},{"type":"function","name":"getCIDByTx","inputs":[{"name":"txHash","type":"bytes32","internalType":"bytes32"}],"outputs":[{"name":"","type":"bytes32","internalType":"bytes32"}],"stateMutability":"view"},{"type":"function","name":"getCIDRecord","inputs":[{"name":"cidHash","type":"bytes32","internalType":"bytes32"}],"outputs":[{"name":"","type":"tuple","internalType":"struct FileRegistry.CIDRecord","components":[{"name":"contentHash","type":"bytes32","internalType":"bytes32"},{"name":"uri","type":"string","internalType":"string"},{"name":"blockNumber","type":"uint64","internalType":"uint64"},{"name":"timestamp","type":"uint64","internalType":"uint64"},{"name":"submitter","type":"address","internalType":"address"}]}],"stateMutability":"view"},{"type":"function","name":"getTxByCID","inputs":[{"name":"cidHash","type":"bytes32","internalType":"bytes32"}],"outputs":[{"name":"","type":"bytes32","internalType":"bytes32"}],"stateMutability":"view"},{"type":"function","name":"owner","inputs":[],"outputs":[{"name":"","type":"address","internalType":"address"}],"stateMutability":"view"},{"type":"function","name":"records","inputs":[{"name":"","type":"bytes32","internalType":"bytes32"}],"outputs":[{"name":"contentHash","type":"bytes32","internalType":"bytes32"},{"name":"uri","type":"string","internalType":"string"},{"name":"blockNumber","type":"uint64","internalType":"uint64"},{"name":"timestamp","type":"uint64","internalType":"uint64"},{"name":"submitter","type":"address","internalType":"address"}],"stateMutability":"view"},{"type":"function","name":"transferOwnership","inputs":[{"name":"newOwner","type":"address","internalType":"address"}],"outputs":[],"stateMutability":"nonpayable"},{"type":"function","name":"txToCID","inputs":[{"name":"","type":"bytes32","internalType":"bytes32"}],"outputs":[{"name":"","type":"bytes32","internalType":"bytes32"}],"stateMutability":"view"},{"type":"event","name":"CIDAnchored","inputs":[{"name":"cidHash","type":"bytes32","indexed":true,"internalType":"bytes32"},{"name":"contentHash","type":"bytes32","indexed":true,"internalType":"bytes32"},{"name":"submitter","type":"address","indexed":true,"internalType":"address"},{"name":"timestamp","type":"uint64","indexed":false,"internalType":"uint64"}],"anonymous":false},{"type":"event","name":"OwnershipTransferred","inputs":[{"name":"previous","type":"address","indexed":true,"internalType":"address"},{"name":"next","type":"address","indexed":true,"internalType":"address"}],"anonymous":false}],"bytecode":{"object":"0x6080806040523461004e575f80546001600160a01b031916339081178255907f8be0079c531659141344cd1fd0a4f28419497f9722a3daafe3b4186f6b6457e08180a361084190816100538239f35b5f80fdfe60806040526004361015610011575f80fd5b5f3560e01c806301e64725146106355780631f300c0e14610178578063292e56511461052a5780636b1543fc146105545780637597e17b1461052a5780638da5cb5b14610503578063b7a805b7146101a2578063e86e5663146101785763f2fde38b1461007c575f80fd5b34610174576020366003190112610174576004356001600160a01b0381811691829003610174575f5490811680330361012f5782156100ea5782907f8be0079c531659141344cd1fd0a4f28419497f9722a3daafe3b4186f6b6457e05f80a36001600160a01b031916175f55005b60405162461bcd60e51b815260206004820152601860248201527f46696c6552656769737472793a207a65726f206f776e657200000000000000006044820152606490fd5b60405162461bcd60e51b815260206004820152601760248201527f46696c6552656769737472793a206e6f74206f776e65720000000000000000006044820152606490fd5b5f80fd5b34610174576020366003190112610174576004355f526002602052602060405f2054604051908152f35b34610174576060366003190112610174576044356001600160401b0381116101745736602382011215610174578060040135906001600160401b038211610174573660248383010111610174576004355f5260016020526001600160401b03600260405f20015460401c166104be575f602060405193610221856106ef565b60243585528060246040519561024085601f19601f860116018861070a565b828752018386013783010152602082019081526001600160401b03431660408301526001600160401b03421660608301523360808301526004355f52600160205260405f209082518255518051906001600160401b0382116103ef576102a960018401546106b7565b601f811161047a575b50602090601f831160011461040e5760039392915f9183610403575b50505f1982851b1c1916600191821b17908201555b600281016001600160401b036040850151168154906fffffffffffffffff0000000000000000606087015160401b16916fffffffffffffffffffffffffffffffff1916171790550190608060018060a01b03910151166bffffffffffffffffffffffff60a01b8254161790556040516020810160043581524260408301523360601b60608301526054825260808201908282106001600160401b038311176103ef5760209282604052519020906004355f52600383528160405f2055815f526002835260043560405f20556001600160401b03421681523390602435907f0ddd8b91cc63ea2e5accb19efa146f36d5da575dada1c020309fef5b5b5a9f278560043592a4604051908152f35b634e487b7160e01b5f52604160045260245ffd5b0151905085806102ce565b90601f19831691600185015f5260205f20925f5b818110610462575091600193918560039796941061044b575b505050811b0160018201556102e3565b01515f1983871b60f8161c1916905585808061043b565b92936020600181928786015181550195019301610422565b600184015f5260205f20601f840160051c8101602085106104b7575b601f830160051c820181106104ac5750506102b2565b5f8155600101610496565b5080610496565b60405162461bcd60e51b815260206004820152601e60248201527f46696c6552656769737472793a20616c726561647920616e63686f72656400006044820152606490fd5b34610174575f366003190112610174575f546040516001600160a01b039091168152602090f35b34610174576020366003190112610174576004355f526003602052602060405f2054604051908152f35b3461017457602080600319360112610174575f6080604051610575816106ef565b82815260608482015282604082015282606082015201526004355f526001815260405f20604051906105a6826106ef565b8054825260036105b86001830161072b565b84840190815260028301546001600160401b03908161061b604088019682841688528260608a019460401c16845260018060a01b039687910154169460808901958652604051998a99818b5251908a01525160a060408a015260c08901906107cd565b955116606087015251166080850152511660a08301520390f35b34610174576020366003190112610174576004355f52600160205260405f2080546106626001830161072b565b916002810154906001600160401b0390600360018060a01b03910154169061069c604051958695865260a0602087015260a08601906107cd565b92818116604086015260401c16606084015260808301520390f35b90600182811c921680156106e5575b60208310146106d157565b634e487b7160e01b5f52602260045260245ffd5b91607f16916106c6565b60a081019081106001600160401b038211176103ef57604052565b90601f801991011681019081106001600160401b038211176103ef57604052565b9060405191825f825461073d816106b7565b908184526020946001916001811690815f146107ab575060011461076d575b50505061076b9250038361070a565b565b5f90815285812095935091905b81831061079357505061076b93508201015f808061075c565b8554888401850152948501948794509183019161077a565b9250505061076b94925060ff191682840152151560051b8201015f808061075c565b91908251928382525f5b8481106107f7575050825f602080949584010152601f8019910116010190565b6020818301810151848301820152016107d756fea26469706673582212208d807581d8647eaa19ed0a9fa8b74b52439bda2da843c3609ba848852f540c2664736f6c63430008180033","linkReferences":{}},"methodIdentifiers":{"anchorCID(bytes32,bytes32,string)":"b7a805b7","cidToTx(bytes32)":"292e5651","getCIDByTx(bytes32)":"1f300c0e","getCIDRecord(bytes32)":"6b1543fc","getTxByCID(bytes32)":"7597e17b","owner()":"8da5cb5b","records(bytes32)":"01e64725","transferOwnership(address)":"f2fde38b","txToCID(bytes32)":"e86e5663"},"id":23}